{
    "address": "0xF043E2eF7568f62D4e010C3765fB8f24A4CC046d",
    "abi": [
        {
            "inputs": [
                {
                    "internalType": "address",
                    "name": "priceFeedAddress",
                    "type": "address"
                }
            ],
            "stateMutability": "nonpayable",
            "type": "constructor"
        },
        {
            "inputs": [],
            "name": "Fundme__NotOwner",
            "type": "error"
        },
        {
            "stateMutability": "payable",
            "type": "fallback"
        },
        {
            "inputs": [],
            "name": "MINIMUM_USD",
            "outputs": [
                {
                    "internalType": "uint256",
                    "name": "",
                    "type": "uint256"
                }
            ],
            "stateMutability": "view",
            "type": "function"
        },
        {
            "inputs": [],
            "name": "cheaperWithdraw",
            "outputs": [],
            "stateMutability": "payable",
            "type": "function"
        },
        {
            "inputs": [],
            "name": "fund",
            "outputs": [],
            "stateMutability": "payable",
            "type": "function"
        },
        {
            "inputs": [
                {
                    "internalType": "address",
                    "name": "funder",
                    "type": "address"
                }
            ],
            "name": "getAddressToAmountFunded",
            "outputs": [
                {
                    "internalType": "uint256",
                    "name": "",
                    "type": "uint256"
                }
            ],
            "stateMutability": "view",
            "type": "function"
        },
        {
            "inputs": [
                {
                    "internalType": "uint256",
                    "name": "index",
                    "type": "uint256"
                }
            ],
            "name": "getFunder",
            "outputs": [
                {
                    "internalType": "address",
                    "name": "",
                    "type": "address"
                }
            ],
            "stateMutability": "view",
            "type": "function"
        },
        {
            "inputs": [],
            "name": "getOwner",
            "outputs": [
                {
                    "internalType": "address",
                    "name": "",
                    "type": "address"
                }
            ],
            "stateMutability": "view",
            "type": "function"
        },
        {
            "inputs": [],
            "name": "getPriceFeed",
            "outputs": [
                {
                    "internalType": "contract AggregatorV3Interface",
                    "name": "",
                    "type": "address"
                }
            ],
            "stateMutability": "view",
            "type": "function"
        },
        {
            "inputs": [],
            "name": "withdraw",
            "outputs": [],
            "stateMutability": "nonpayable",
            "type": "function"
        },
        {
            "stateMutability": "payable",
            "type": "receive"
        }
    ],
    "transactionHash": "0x80398cfd62cfcdc4386152a08074e9210624a7904549ed032dc73d78cadd027d",
    "args": [
        "0x694AA1769357215DE4FAC081bf1f309aDC325306"
    ],
    "numDeployments": 5,
    "solcInputHash": "f35de6c9bd79127da1f88b10aefef0a2",
    "bytecode": "0x60a06040523480156200001157600080fd5b506040516200129d3803806200129d83398181016040528101906200003791906200011d565b3373ffffffffffffffffffffffffffffffffffffffff1660808173ffffffffffffffffffffffffffffffffffffffff168152505080600260006101000a81548173ffffffffffffffffffffffffffffffffffffffff021916908373ffffffffffffffffffffffffffffffffffffffff160217905550506200014f565b600080fd5b600073ffffffffffffffffffffffffffffffffffffffff82169050919050565b6000620000e582620000b8565b9050919050565b620000f781620000d8565b81146200010357600080fd5b50565b6000815190506200011781620000ec565b92915050565b600060208284031215620001365762000135620000b3565b5b6000620001468482850162000106565b91505092915050565b60805161111d620001806000396000818161034401528181610593015281816105e301526107d9015261111d6000f3fe60806040526004361061007f5760003560e01c80639e87a5cd1161004e5780639e87a5cd14610142578063b60d42881461016d578063be2693f014610177578063d7b4750c146101815761008e565b80630343fb25146100985780633ccfd60b146100d55780636b69a592146100ec578063893d20e8146101175761008e565b3661008e5761008c6101be565b005b6100966101be565b005b3480156100a457600080fd5b506100bf60048036038101906100ba9190610ac3565b6102f9565b6040516100cc9190610b09565b60405180910390f35b3480156100e157600080fd5b506100ea610342565b005b3480156100f857600080fd5b50610101610582565b60405161010e9190610b09565b60405180910390f35b34801561012357600080fd5b5061012c61058f565b6040516101399190610b33565b60405180910390f35b34801561014e57600080fd5b506101576105b7565b6040516101649190610bad565b60405180910390f35b6101756101be565b005b61017f6105e1565b005b34801561018d57600080fd5b506101a860048036038101906101a39190610bf4565b6108a5565b6040516101b59190610b33565b60405180910390f35b6802b5e3af16b18800006101fd600260009054906101000a900473ffffffffffffffffffffffffffffffffffffffff16346108ec90919063ffffffff16565b101561023e576040517f08c379a000000000000000000000000000000000000000000000000000000000815260040161023590610c7e565b60405180910390fd5b6000339080600181540180825580915050600190039060005260206000200160009091909190916101000a81548173ffffffffffffffffffffffffffffffffffffffff021916908373ffffffffffffffffffffffffffffffffffffffff16021790555034600160003373ffffffffffffffffffffffffffffffffffffffff1673ffffffffffffffffffffffffffffffffffffffff16815260200190815260200160002060008282546102f09190610ccd565b92505081905550565b6000600160008373ffffffffffffffffffffffffffffffffffffffff1673ffffffffffffffffffffffffffffffffffffffff168152602001908152602001600020549050919050565b7f000000000000000000000000000000000000000000000000000000000000000073ffffffffffffffffffffffffffffffffffffffff163373ffffffffffffffffffffffffffffffffffffffff16146103c7576040517f85db10ab00000000000000000000000000000000000000000000000000000000815260040160405180910390fd5b60005b6000805490508110156104725760008082815481106103ec576103eb610d01565b5b9060005260206000200160009054906101000a900473ffffffffffffffffffffffffffffffffffffffff1690506000600160008373ffffffffffffffffffffffffffffffffffffffff1673ffffffffffffffffffffffffffffffffffffffff1681526020019081526020016000208190555050808061046a90610d30565b9150506103ca565b50600067ffffffffffffffff81111561048e5761048d610d78565b5b6040519080825280602002602001820160405280156104bc5781602001602082028036833780820191505090505b50600090805190602001906104d29291906109b9565b5060003373ffffffffffffffffffffffffffffffffffffffff16476040516104f990610dd8565b60006040518083038185875af1925050503d8060008114610536576040519150601f19603f3d011682016040523d82523d6000602084013e61053b565b606091505b505090508061057f576040517f08c379a000000000000000000000000000000000000000000000000000000000815260040161057690610e39565b60405180910390fd5b50565b6802b5e3af16b188000081565b60007f0000000000000000000000000000000000000000000000000000000000000000905090565b6000600260009054906101000a900473ffffffffffffffffffffffffffffffffffffffff16905090565b7f000000000000000000000000000000000000000000000000000000000000000073ffffffffffffffffffffffffffffffffffffffff163373ffffffffffffffffffffffffffffffffffffffff1614610666576040517f85db10ab00000000000000000000000000000000000000000000000000000000815260040160405180910390fd5b6000808054806020026020016040519081016040528092919081815260200182805480156106e957602002820191906000526020600020905b8160009054906101000a900473ffffffffffffffffffffffffffffffffffffffff1673ffffffffffffffffffffffffffffffffffffffff168152602001906001019080831161069f575b5050505050905060005b815181101561077457600082828151811061071157610710610d01565b5b602002602001015190506000600160008373ffffffffffffffffffffffffffffffffffffffff1673ffffffffffffffffffffffffffffffffffffffff1681526020019081526020016000208190555050808061076c90610d30565b9150506106f3565b50600067ffffffffffffffff8111156107905761078f610d78565b5b6040519080825280602002602001820160405280156107be5781602001602082028036833780820191505090505b50600090805190602001906107d49291906109b9565b5060007f000000000000000000000000000000000000000000000000000000000000000073ffffffffffffffffffffffffffffffffffffffff164760405161081b90610dd8565b60006040518083038185875af1925050503d8060008114610858576040519150601f19603f3d011682016040523d82523d6000602084013e61085d565b606091505b50509050806108a1576040517f08c379a000000000000000000000000000000000000000000000000000000000815260040161089890610ea5565b60405180910390fd5b5050565b60008082815481106108ba576108b9610d01565b5b9060005260206000200160009054906101000a900473ffffffffffffffffffffffffffffffffffffffff169050919050565b6000806108f883610928565b90506000670de0b6b3a764000085836109119190610ec5565b61091b9190610f36565b9050809250505092915050565b6000808273ffffffffffffffffffffffffffffffffffffffff1663feaf968c6040518163ffffffff1660e01b815260040160a060405180830381865afa158015610976573d6000803e3d6000fd5b505050506040513d601f19601f8201168201806040525081019061099a9190610ff4565b5050509150506402540be400816109b1919061106f565b915050919050565b828054828255906000526020600020908101928215610a32579160200282015b82811115610a315782518260006101000a81548173ffffffffffffffffffffffffffffffffffffffff021916908373ffffffffffffffffffffffffffffffffffffffff160217905550916020019190600101906109d9565b5b509050610a3f9190610a43565b5090565b5b80821115610a5c576000816000905550600101610a44565b5090565b600080fd5b600073ffffffffffffffffffffffffffffffffffffffff82169050919050565b6000610a9082610a65565b9050919050565b610aa081610a85565b8114610aab57600080fd5b50565b600081359050610abd81610a97565b92915050565b600060208284031215610ad957610ad8610a60565b5b6000610ae784828501610aae565b91505092915050565b6000819050919050565b610b0381610af0565b82525050565b6000602082019050610b1e6000830184610afa565b92915050565b610b2d81610a85565b82525050565b6000602082019050610b486000830184610b24565b92915050565b6000819050919050565b6000610b73610b6e610b6984610a65565b610b4e565b610a65565b9050919050565b6000610b8582610b58565b9050919050565b6000610b9782610b7a565b9050919050565b610ba781610b8c565b82525050565b6000602082019050610bc26000830184610b9e565b92915050565b610bd181610af0565b8114610bdc57600080fd5b50565b600081359050610bee81610bc8565b92915050565b600060208284031215610c0a57610c09610a60565b5b6000610c1884828501610bdf565b91505092915050565b600082825260208201905092915050565b7f4469646e27742073656e6420656e6f7567680000000000000000000000000000600082015250565b6000610c68601283610c21565b9150610c7382610c32565b602082019050919050565b60006020820190508181036000830152610c9781610c5b565b9050919050565b7f4e487b7100000000000000000000000000000000000000000000000000000000600052601160045260246000fd5b6000610cd882610af0565b9150610ce383610af0565b9250828201905080821115610cfb57610cfa610c9e565b5b92915050565b7f4e487b7100000000000000000000000000000000000000000000000000000000600052603260045260246000fd5b6000610d3b82610af0565b91507fffffffffffffffffffffffffffffffffffffffffffffffffffffffffffffffff8203610d6d57610d6c610c9e565b5b600182019050919050565b7f4e487b7100000000000000000000000000000000000000000000000000000000600052604160045260246000fd5b600081905092915050565b50565b6000610dc2600083610da7565b9150610dcd82610db2565b600082019050919050565b6000610de382610db5565b9150819050919050565b7f43616c6c204661696c6564000000000000000000000000000000000000000000600082015250565b6000610e23600b83610c21565b9150610e2e82610ded565b602082019050919050565b60006020820190508181036000830152610e5281610e16565b9050919050565b7f63616c6c204661696c6564000000000000000000000000000000000000000000600082015250565b6000610e8f600b83610c21565b9150610e9a82610e59565b602082019050919050565b60006020820190508181036000830152610ebe81610e82565b9050919050565b6000610ed082610af0565b9150610edb83610af0565b9250828202610ee981610af0565b91508282048414831517610f0057610eff610c9e565b5b5092915050565b7f4e487b7100000000000000000000000000000000000000000000000000000000600052601260045260246000fd5b6000610f4182610af0565b9150610f4c83610af0565b925082610f5c57610f5b610f07565b5b828204905092915050565b600069ffffffffffffffffffff82169050919050565b610f8681610f67565b8114610f9157600080fd5b50565b600081519050610fa381610f7d565b92915050565b6000819050919050565b610fbc81610fa9565b8114610fc757600080fd5b50565b600081519050610fd981610fb3565b92915050565b600081519050610fee81610bc8565b92915050565b600080600080600060a086880312156110105761100f610a60565b5b600061101e88828901610f94565b955050602061102f88828901610fca565b945050604061104088828901610fdf565b935050606061105188828901610fdf565b925050608061106288828901610f94565b9150509295509295909350565b600061107a82610fa9565b915061108583610fa9565b925082820261109381610fa9565b91507f800000000000000000000000000000000000000000000000000000000000000084146000841216156110cb576110ca610c9e565b5b82820584148315176110e0576110df610c9e565b5b509291505056fea2646970667358221220e149389cf9f9a6baf93f7da12eebb978bed999ecc60814644973cf984bdf9b4f64736f6c63430008150033",
    "devdoc": {
        "kind": "dev",
        "methods": {},
        "version": 1
    },
    "userdoc": {
        "kind": "user",
        "methods": {},
        "version": 1
    },
    "storageLayout": {
        "storage": [
            {
                "astId": 328,
                "contract": "contracts/FundMe.sol:FundMe",
                "label": "s_funders",
                "offset": 0,
                "slot": "0",
                "type": "t_array(t_address)dyn_storage"
            },
            {
                "astId": 332,
                "contract": "contracts/FundMe.sol:FundMe",
                "label": "s_addressToAmountFunded",
                "offset": 0,
                "slot": "1",
                "type": "t_mapping(t_address,t_uint256)"
            },
            {
                "astId": 337,
                "contract": "contracts/FundMe.sol:FundMe",
                "label": "priceFeed",
                "offset": 0,
                "slot": "2",
                "type": "t_contract(AggregatorV3Interface)104"
            }
        ],
        "types": {
            "t_address": {
                "encoding": "inplace",
                "label": "address",
                "numberOfBytes": "20"
            },
            "t_array(t_address)dyn_storage": {
                "base": "t_address",
                "encoding": "dynamic_array",
                "label": "address[]",
                "numberOfBytes": "32"
            },
            "t_contract(AggregatorV3Interface)104": {
                "encoding": "inplace",
                "label": "contract AggregatorV3Interface",
                "numberOfBytes": "20"
            },
            "t_mapping(t_address,t_uint256)": {
                "encoding": "mapping",
                "key": "t_address",
                "label": "mapping(address => uint256)",
                "numberOfBytes": "32",
                "value": "t_uint256"
            },
            "t_uint256": {
                "encoding": "inplace",
                "label": "uint256",
                "numberOfBytes": "32"
            }
        }
    }
}